{
  "_format": "hh-sol-artifact-1",
  "contractName": "Instagram",
  "sourceName": "contracts/Instagram.sol",
  "abi": [
    {
      "anonymous": false,
      "inputs": [
        {
          "indexed": true,
          "internalType": "address",
          "name": "follower",
          "type": "address"
        },
        {
          "indexed": true,
          "internalType": "address",
          "name": "following",
          "type": "address"
        }
      ],
      "name": "Followed",
      "type": "event"
    },
    {
      "anonymous": false,
      "inputs": [
        {
          "indexed": true,
          "internalType": "uint256",
          "name": "postId",
          "type": "uint256"
        },
        {
          "indexed": true,
          "internalType": "address",
          "name": "author",
          "type": "address"
        },
        {
          "indexed": false,
          "internalType": "string",
          "name": "imageHash",
          "type": "string"
        },
        {
          "indexed": false,
          "internalType": "string",
          "name": "caption",
          "type": "string"
        }
      ],
      "name": "PostCreated",
      "type": "event"
    },
    {
      "anonymous": false,
      "inputs": [
        {
          "indexed": true,
          "internalType": "uint256",
          "name": "postId",
          "type": "uint256"
        },
        {
          "indexed": true,
          "internalType": "address",
          "name": "liker",
          "type": "address"
        }
      ],
      "name": "PostLiked",
      "type": "event"
    },
    {
      "anonymous": false,
      "inputs": [
        {
          "indexed": true,
          "internalType": "address",
          "name": "user",
          "type": "address"
        },
        {
          "indexed": false,
          "internalType": "string",
          "name": "username",
          "type": "string"
        }
      ],
      "name": "UserRegistered",
      "type": "event"
    },
    {
      "inputs": [
        {
          "internalType": "string",
          "name": "_imageHash",
          "type": "string"
        },
        {
          "internalType": "string",
          "name": "_caption",
          "type": "string"
        }
      ],
      "name": "createPost",
      "outputs": [],
      "stateMutability": "nonpayable",
      "type": "function"
    },
    {
      "inputs": [
        {
          "internalType": "address",
          "name": "_userToFollow",
          "type": "address"
        }
      ],
      "name": "followUser",
      "outputs": [],
      "stateMutability": "nonpayable",
      "type": "function"
    },
    {
      "inputs": [
        {
          "internalType": "uint256",
          "name": "_postId",
          "type": "uint256"
        }
      ],
      "name": "getPost",
      "outputs": [
        {
          "internalType": "uint256",
          "name": "id",
          "type": "uint256"
        },
        {
          "internalType": "address",
          "name": "author",
          "type": "address"
        },
        {
          "internalType": "string",
          "name": "imageHash",
          "type": "string"
        },
        {
          "internalType": "string",
          "name": "caption",
          "type": "string"
        },
        {
          "internalType": "uint256",
          "name": "timestamp",
          "type": "uint256"
        },
        {
          "internalType": "uint256",
          "name": "likeCount",
          "type": "uint256"
        }
      ],
      "stateMutability": "view",
      "type": "function"
    },
    {
      "inputs": [
        {
          "internalType": "address",
          "name": "_user",
          "type": "address"
        }
      ],
      "name": "getUser",
      "outputs": [
        {
          "internalType": "string",
          "name": "username",
          "type": "string"
        },
        {
          "internalType": "string",
          "name": "bio",
          "type": "string"
        },
        {
          "internalType": "string",
          "name": "profileImage",
          "type": "string"
        },
        {
          "internalType": "uint256[]",
          "name": "userPosts",
          "type": "uint256[]"
        },
        {
          "internalType": "uint256",
          "name": "followerCount",
          "type": "uint256"
        },
        {
          "internalType": "uint256",
          "name": "followingCount",
          "type": "uint256"
        }
      ],
      "stateMutability": "view",
      "type": "function"
    },
    {
      "inputs": [
        {
          "internalType": "uint256",
          "name": "_postId",
          "type": "uint256"
        }
      ],
      "name": "likePost",
      "outputs": [],
      "stateMutability": "nonpayable",
      "type": "function"
    },
    {
      "inputs": [],
      "name": "postCount",
      "outputs": [
        {
          "internalType": "uint256",
          "name": "",
          "type": "uint256"
        }
      ],
      "stateMutability": "view",
      "type": "function"
    },
    {
      "inputs": [
        {
          "internalType": "string",
          "name": "_username",
          "type": "string"
        },
        {
          "internalType": "string",
          "name": "_bio",
          "type": "string"
        },
        {
          "internalType": "string",
          "name": "_profileImage",
          "type": "string"
        }
      ],
      "name": "registerUser",
      "outputs": [],
      "stateMutability": "nonpayable",
      "type": "function"
    }
  ],
  "bytecode": "0x608060405234801561001057600080fd5b50611ca0806100206000396000f3fe608060405234801561001057600080fd5b506004361061007d5760003560e01c80636f77926b1161005b5780636f77926b146100f1578063725009d314610126578063a70806f714610142578063d637dcfa1461015e5761007d565b806317906c2e14610082578063392338f5146100a057806340731c24146100bc575b600080fd5b61008a61017a565b6040516100979190611084565b60405180910390f35b6100ba60048036038101906100b591906111f9565b610180565b005b6100d660048036038101906100d1919061129d565b61038a565b6040516100e89695949392919061138a565b60405180910390f35b61010b60048036038101906101069190611425565b61055b565b60405161011d96959493929190611510565b60405180910390f35b610140600480360381019061013b919061129d565b61086f565b005b61015c60048036038101906101579190611425565b610aab565b005b6101786004803603810190610173919061158d565b610e97565b005b60005481565b336000600160008373ffffffffffffffffffffffffffffffffffffffff1673ffffffffffffffffffffffffffffffffffffffff16815260200190815260200160002060000180546101d090611663565b905003610212576040517f08c379a0000000000000000000000000000000000000000000000000000000008152600401610209906116e0565b60405180910390fd5b6000808154809291906102249061172f565b91905055506000600260008054815260200190815260200160002090506000548160000181905550338160010160006101000a81548173ffffffffffffffffffffffffffffffffffffffff021916908373ffffffffffffffffffffffffffffffffffffffff160217905550838160020190816102a09190611923565b50828160030190816102b29190611923565b5042816004018190555060008160050181905550600160003373ffffffffffffffffffffffffffffffffffffffff1673ffffffffffffffffffffffffffffffffffffffff16815260200190815260200160002060030160005490806001815401808255809150506001900390600052602060002001600090919091909150553373ffffffffffffffffffffffffffffffffffffffff166000547f5475621b07408f75d49c828caa5aeacb3a5e98d3497e75730dc184677504401c868660405161037c9291906119f5565b60405180910390a350505050565b600080606080600080600060026000898152602001908152602001600020905060008160000154036103f1576040517f08c379a00000000000000000000000000000000000000000000000000000000081526004016103e890611a78565b60405180910390fd5b80600001548160010160009054906101000a900473ffffffffffffffffffffffffffffffffffffffff1682600201836003018460040154856005015483805461043990611663565b80601f016020809104026020016040519081016040528092919081815260200182805461046590611663565b80156104b25780601f10610487576101008083540402835291602001916104b2565b820191906000526020600020905b81548152906001019060200180831161049557829003601f168201915b505050505093508280546104c590611663565b80601f01602080910402602001604051908101604052809291908181526020018280546104f190611663565b801561053e5780601f106105135761010080835404028352916020019161053e565b820191906000526020600020905b81548152906001019060200180831161052157829003601f168201915b505050505092509650965096509650965096505091939550919395565b606080606080600080866000600160008373ffffffffffffffffffffffffffffffffffffffff1673ffffffffffffffffffffffffffffffffffffffff16815260200190815260200160002060000180546105b490611663565b9050036105f6576040517f08c379a00000000000000000000000000000000000000000000000000000000081526004016105ed906116e0565b60405180910390fd5b6000600160008a73ffffffffffffffffffffffffffffffffffffffff1673ffffffffffffffffffffffffffffffffffffffff168152602001908152602001600020905080600001805461064890611663565b80601f016020809104026020016040519081016040528092919081815260200182805461067490611663565b80156106c15780601f10610696576101008083540402835291602001916106c1565b820191906000526020600020905b8154815290600101906020018083116106a457829003601f168201915b505050505097508060010180546106d790611663565b80601f016020809104026020016040519081016040528092919081815260200182805461070390611663565b80156107505780601f1061072557610100808354040283529160200191610750565b820191906000526020600020905b81548152906001019060200180831161073357829003601f168201915b5050505050965080600201805461076690611663565b80601f016020809104026020016040519081016040528092919081815260200182805461079290611663565b80156107df5780601f106107b4576101008083540402835291602001916107df565b820191906000526020600020905b8154815290600101906020018083116107c257829003601f168201915b505050505095508060030180548060200260200160405190810160405280929190818152602001828054801561083457602002820191906000526020600020905b815481526020019060010190808311610820575b50505050509450600093506000925060005b61271081101561086357808061085b9061172f565b915050610846565b50505091939550919395565b336000600160008373ffffffffffffffffffffffffffffffffffffffff1673ffffffffffffffffffffffffffffffffffffffff16815260200190815260200160002060000180546108bf90611663565b905003610901576040517f08c379a00000000000000000000000000000000000000000000000000000000081526004016108f8906116e0565b60405180910390fd5b6000600260008481526020019081526020016000209050600081600001540361095f576040517f08c379a000000000000000000000000000000000000000000000000000000000815260040161095690611a78565b60405180910390fd5b8060060160003373ffffffffffffffffffffffffffffffffffffffff1673ffffffffffffffffffffffffffffffffffffffff16815260200190815260200160002060009054906101000a900460ff16156109ee576040517f08c379a00000000000000000000000000000000000000000000000000000000081526004016109e590611ae4565b60405180910390fd5b60018160060160003373ffffffffffffffffffffffffffffffffffffffff1673ffffffffffffffffffffffffffffffffffffffff16815260200190815260200160002060006101000a81548160ff021916908315150217905550806005016000815480929190610a5d9061172f565b91905055503373ffffffffffffffffffffffffffffffffffffffff16837fcf765d6f163c9b0d832e2a94f4c8e9bffd32a2c3ca5fdbb8cc67b5fe1441f41360405160405180910390a3505050565b336000600160008373ffffffffffffffffffffffffffffffffffffffff1673ffffffffffffffffffffffffffffffffffffffff1681526020019081526020016000206000018054610afb90611663565b905003610b3d576040517f08c379a0000000000000000000000000000000000000000000000000000000008152600401610b34906116e0565b60405180910390fd5b816000600160008373ffffffffffffffffffffffffffffffffffffffff1673ffffffffffffffffffffffffffffffffffffffff1681526020019081526020016000206000018054610b8d90611663565b905003610bcf576040517f08c379a0000000000000000000000000000000000000000000000000000000008152600401610bc6906116e0565b60405180910390fd5b3373ffffffffffffffffffffffffffffffffffffffff168373ffffffffffffffffffffffffffffffffffffffff1603610c3d576040517f08c379a0000000000000000000000000000000000000000000000000000000008152600401610c3490611b50565b60405180910390fd5b600160003373ffffffffffffffffffffffffffffffffffffffff1673ffffffffffffffffffffffffffffffffffffffff16815260200190815260200160002060050160008473ffffffffffffffffffffffffffffffffffffffff1673ffffffffffffffffffffffffffffffffffffffff16815260200190815260200160002060009054906101000a900460ff1615610d0a576040517f08c379a0000000000000000000000000000000000000000000000000000000008152600401610d0190611bbc565b60405180910390fd5b60018060003373ffffffffffffffffffffffffffffffffffffffff1673ffffffffffffffffffffffffffffffffffffffff16815260200190815260200160002060050160008573ffffffffffffffffffffffffffffffffffffffff1673ffffffffffffffffffffffffffffffffffffffff16815260200190815260200160002060006101000a81548160ff02191690831515021790555060018060008573ffffffffffffffffffffffffffffffffffffffff1673ffffffffffffffffffffffffffffffffffffffff16815260200190815260200160002060040160003373ffffffffffffffffffffffffffffffffffffffff1673ffffffffffffffffffffffffffffffffffffffff16815260200190815260200160002060006101000a81548160ff0219169083151502179055508273ffffffffffffffffffffffffffffffffffffffff163373ffffffffffffffffffffffffffffffffffffffff167f6178e95c138f06036cdc07a49ed6a3d23008969fa143baeceb037ebae22e8d1460405160405180910390a3505050565b6000600160003373ffffffffffffffffffffffffffffffffffffffff1673ffffffffffffffffffffffffffffffffffffffff1681526020019081526020016000206000018054610ee690611663565b905014610f28576040517f08c379a0000000000000000000000000000000000000000000000000000000008152600401610f1f90611c28565b60405180910390fd5b82600160003373ffffffffffffffffffffffffffffffffffffffff1673ffffffffffffffffffffffffffffffffffffffff1681526020019081526020016000206000019081610f779190611923565b5081600160003373ffffffffffffffffffffffffffffffffffffffff1673ffffffffffffffffffffffffffffffffffffffff1681526020019081526020016000206001019081610fc79190611923565b5080600160003373ffffffffffffffffffffffffffffffffffffffff1673ffffffffffffffffffffffffffffffffffffffff16815260200190815260200160002060020190816110179190611923565b503373ffffffffffffffffffffffffffffffffffffffff167f48cac28ad4dc618e15f4c2dd5e97751182f166de97b25618318b2112aa951a2f8460405161105e9190611c48565b60405180910390a2505050565b6000819050919050565b61107e8161106b565b82525050565b60006020820190506110996000830184611075565b92915050565b6000604051905090565b600080fd5b600080fd5b600080fd5b600080fd5b6000601f19601f8301169050919050565b7f4e487b7100000000000000000000000000000000000000000000000000000000600052604160045260246000fd5b611106826110bd565b810181811067ffffffffffffffff82111715611125576111246110ce565b5b80604052505050565b600061113861109f565b905061114482826110fd565b919050565b600067ffffffffffffffff821115611164576111636110ce565b5b61116d826110bd565b9050602081019050919050565b82818337600083830152505050565b600061119c61119784611149565b61112e565b9050828152602081018484840111156111b8576111b76110b8565b5b6111c384828561117a565b509392505050565b600082601f8301126111e0576111df6110b3565b5b81356111f0848260208601611189565b91505092915050565b600080604083850312156112105761120f6110a9565b5b600083013567ffffffffffffffff81111561122e5761122d6110ae565b5b61123a858286016111cb565b925050602083013567ffffffffffffffff81111561125b5761125a6110ae565b5b611267858286016111cb565b9150509250929050565b61127a8161106b565b811461128557600080fd5b50565b60008135905061129781611271565b92915050565b6000602082840312156112b3576112b26110a9565b5b60006112c184828501611288565b91505092915050565b600073ffffffffffffffffffffffffffffffffffffffff82169050919050565b60006112f5826112ca565b9050919050565b611305816112ea565b82525050565b600081519050919050565b600082825260208201905092915050565b60005b8381101561134557808201518184015260208101905061132a565b60008484015250505050565b600061135c8261130b565b6113668185611316565b9350611376818560208601611327565b61137f816110bd565b840191505092915050565b600060c08201905061139f6000830189611075565b6113ac60208301886112fc565b81810360408301526113be8187611351565b905081810360608301526113d28186611351565b90506113e16080830185611075565b6113ee60a0830184611075565b979650505050505050565b611402816112ea565b811461140d57600080fd5b50565b60008135905061141f816113f9565b92915050565b60006020828403121561143b5761143a6110a9565b5b600061144984828501611410565b91505092915050565b600081519050919050565b600082825260208201905092915050565b6000819050602082019050919050565b6114878161106b565b82525050565b6000611499838361147e565b60208301905092915050565b6000602082019050919050565b60006114bd82611452565b6114c7818561145d565b93506114d28361146e565b8060005b838110156115035781516114ea888261148d565b97506114f5836114a5565b9250506001810190506114d6565b5085935050505092915050565b600060c082019050818103600083015261152a8189611351565b9050818103602083015261153e8188611351565b905081810360408301526115528187611351565b9050818103606083015261156681866114b2565b90506115756080830185611075565b61158260a0830184611075565b979650505050505050565b6000806000606084860312156115a6576115a56110a9565b5b600084013567ffffffffffffffff8111156115c4576115c36110ae565b5b6115d0868287016111cb565b935050602084013567ffffffffffffffff8111156115f1576115f06110ae565b5b6115fd868287016111cb565b925050604084013567ffffffffffffffff81111561161e5761161d6110ae565b5b61162a868287016111cb565b9150509250925092565b7f4e487b7100000000000000000000000000000000000000000000000000000000600052602260045260246000fd5b6000600282049050600182168061167b57607f821691505b60208210810361168e5761168d611634565b5b50919050565b7f5573657220646f6573206e6f7420657869737400000000000000000000000000600082015250565b60006116ca601383611316565b91506116d582611694565b602082019050919050565b600060208201905081810360008301526116f9816116bd565b9050919050565b7f4e487b7100000000000000000000000000000000000000000000000000000000600052601160045260246000fd5b600061173a8261106b565b91507fffffffffffffffffffffffffffffffffffffffffffffffffffffffffffffffff820361176c5761176b611700565b5b600182019050919050565b60008190508160005260206000209050919050565b60006020601f8301049050919050565b600082821b905092915050565b6000600883026117d97fffffffffffffffffffffffffffffffffffffffffffffffffffffffffffffffff8261179c565b6117e3868361179c565b95508019841693508086168417925050509392505050565b6000819050919050565b600061182061181b6118168461106b565b6117fb565b61106b565b9050919050565b6000819050919050565b61183a83611805565b61184e61184682611827565b8484546117a9565b825550505050565b600090565b611863611856565b61186e818484611831565b505050565b5b818110156118925761188760008261185b565b600181019050611874565b5050565b601f8211156118d7576118a881611777565b6118b18461178c565b810160208510156118c0578190505b6118d46118cc8561178c565b830182611873565b50505b505050565b600082821c905092915050565b60006118fa600019846008026118dc565b1980831691505092915050565b600061191383836118e9565b9150826002028217905092915050565b61192c8261130b565b67ffffffffffffffff811115611945576119446110ce565b5b61194f8254611663565b61195a828285611896565b600060209050601f83116001811461198d576000841561197b578287015190505b6119858582611907565b8655506119ed565b601f19841661199b86611777565b60005b828110156119c35784890151825560018201915060208501945060208101905061199e565b868310156119e057848901516119dc601f8916826118e9565b8355505b6001600288020188555050505b505050505050565b60006040820190508181036000830152611a0f8185611351565b90508181036020830152611a238184611351565b90509392505050565b7f506f737420646f6573206e6f7420657869737400000000000000000000000000600082015250565b6000611a62601383611316565b9150611a6d82611a2c565b602082019050919050565b60006020820190508181036000830152611a9181611a55565b9050919050565b7f416c7265616479206c696b6564207468697320706f7374000000000000000000600082015250565b6000611ace601783611316565b9150611ad982611a98565b602082019050919050565b60006020820190508181036000830152611afd81611ac1565b9050919050565b7f43616e6e6f7420666f6c6c6f7720796f757273656c6600000000000000000000600082015250565b6000611b3a601683611316565b9150611b4582611b04565b602082019050919050565b60006020820190508181036000830152611b6981611b2d565b9050919050565b7f416c726561647920666f6c6c6f77696e67207468697320757365720000000000600082015250565b6000611ba6601b83611316565b9150611bb182611b70565b602082019050919050565b60006020820190508181036000830152611bd581611b99565b9050919050565b7f5573657220616c72656164792072656769737465726564000000000000000000600082015250565b6000611c12601783611316565b9150611c1d82611bdc565b602082019050919050565b60006020820190508181036000830152611c4181611c05565b9050919050565b60006020820190508181036000830152611c628184611351565b90509291505056fea264697066735822122056664869d9055fbffd7ca5605d81b58f6d06408e2c27b8cf23e751578411c4c864736f6c63430008110033",
  "linkReferences": {},
  "deployedLinkReferences": {}
}